{
  "_format": "hh-sol-artifact-1",
  "contractName": "MyOwnSafeFactory",
  "sourceName": "contracts/MySafeFactory.sol",
  "abi": [
    {
      "inputs": [],
      "stateMutability": "nonpayable",
      "type": "constructor"
    },
    {
      "inputs": [],
      "name": "Create2EmptyBytecode",
      "type": "error"
    },
    {
      "inputs": [],
      "name": "Create2FailedDeployment",
      "type": "error"
    },
    {
      "inputs": [
        {
          "internalType": "uint256",
          "name": "balance",
          "type": "uint256"
        },
        {
          "internalType": "uint256",
          "name": "needed",
          "type": "uint256"
        }
      ],
      "name": "Create2InsufficientBalance",
      "type": "error"
    },
    {
      "inputs": [],
      "name": "ERC1167FailedCreateClone",
      "type": "error"
    },
    {
      "anonymous": false,
      "inputs": [
        {
          "indexed": true,
          "internalType": "address",
          "name": "newSafeDeployed",
          "type": "address"
        }
      ],
      "name": "SafeDeployed",
      "type": "event"
    },
    {
      "anonymous": false,
      "inputs": [
        {
          "indexed": true,
          "internalType": "address",
          "name": "newSafeDeployedUpgradeable",
          "type": "address"
        }
      ],
      "name": "SafeDeployedUpgradeable",
      "type": "event"
    },
    {
      "anonymous": false,
      "inputs": [
        {
          "indexed": true,
          "internalType": "address",
          "name": "newCreate2DeployedUpgradeable",
          "type": "address"
        }
      ],
      "name": "SafeDeployedUpgradeablewithCreate2",
      "type": "event"
    },
    {
      "anonymous": false,
      "inputs": [
        {
          "indexed": true,
          "internalType": "address",
          "name": "newCreate2Deployed",
          "type": "address"
        }
      ],
      "name": "SafeDeployedwithCreate2",
      "type": "event"
    },
    {
      "inputs": [
        {
          "internalType": "address",
          "name": "_owner",
          "type": "address"
        }
      ],
      "name": "deploySafe",
      "outputs": [
        {
          "internalType": "address",
          "name": "",
          "type": "address"
        }
      ],
      "stateMutability": "nonpayable",
      "type": "function"
    },
    {
      "inputs": [
        {
          "internalType": "address",
          "name": "_owner",
          "type": "address"
        }
      ],
      "name": "deploySafeUpgradeable",
      "outputs": [
        {
          "internalType": "address",
          "name": "",
          "type": "address"
        }
      ],
      "stateMutability": "nonpayable",
      "type": "function"
    },
    {
      "inputs": [
        {
          "internalType": "address",
          "name": "_owner",
          "type": "address"
        }
      ],
      "name": "deploySafeUpgradeableWithCreate2",
      "outputs": [
        {
          "internalType": "address",
          "name": "",
          "type": "address"
        }
      ],
      "stateMutability": "nonpayable",
      "type": "function"
    },
    {
      "inputs": [
        {
          "internalType": "address",
          "name": "_owner",
          "type": "address"
        }
      ],
      "name": "deploySafeWithCreate2",
      "outputs": [
        {
          "internalType": "address",
          "name": "",
          "type": "address"
        }
      ],
      "stateMutability": "nonpayable",
      "type": "function"
    },
    {
      "inputs": [],
      "name": "implementation",
      "outputs": [
        {
          "internalType": "address",
          "name": "",
          "type": "address"
        }
      ],
      "stateMutability": "view",
      "type": "function"
    }
  ],
  "bytecode": "0x608060405234801561001057600080fd5b5060405161001d9061007e565b604051809103906000f080158015610039573d6000803e3d6000fd5b506000806101000a81548173ffffffffffffffffffffffffffffffffffffffff021916908373ffffffffffffffffffffffffffffffffffffffff16021790555061008b565b6106bf8061107583390190565b610fdb8061009a6000396000f3fe608060405234801561001057600080fd5b50600436106100575760003560e01c8063202aed451461005c5780635c60da1b1461008c57806373f4de1e146100aa578063aa378a55146100da578063c97bec9b1461010a575b600080fd5b6100766004803603810190610071919061079a565b61013a565b60405161008391906107d6565b60405180910390f35b61009461021f565b6040516100a191906107d6565b60405180910390f35b6100c460048036038101906100bf919061079a565b610243565b6040516100d191906107d6565b60405180910390f35b6100f460048036038101906100ef919061079a565b610331565b60405161010191906107d6565b60405180910390f35b610124600480360381019061011f919061079a565b610445565b60405161013191906107d6565b60405180910390f35b60008061016660008054906101000a900473ffffffffffffffffffffffffffffffffffffffff166104ca565b90508073ffffffffffffffffffffffffffffffffffffffff1663c4d66de8846040518263ffffffff1660e01b81526004016101a191906107d6565b600060405180830381600087803b1580156101bb57600080fd5b505af11580156101cf573d6000803e3d6000fd5b505050508073ffffffffffffffffffffffffffffffffffffffff167f4d0e6bbbc99b668ebda0332f0c535ef17eea8d50f508bc7cfba14e71974fca8460405160405180910390a280915050919050565b60008054906101000a900473ffffffffffffffffffffffffffffffffffffffff1681565b6000808242604051602001610259929190610864565b60405160208183030381529060405280519060200120905060006102e2600083604051806020016102899061072a565b6020820181038252601f19601f82011660405250876040516020016102ae91906107d6565b6040516020818303038152906040526040516020016102ce929190610901565b60405160208183030381529060405261057b565b90508073ffffffffffffffffffffffffffffffffffffffff167fde642441bc746f934ba3b4b73ede08d7752ffab4c56014deb2cbeb1a2a2fcac760405160405180910390a28092505050919050565b6000808242604051602001610347929190610864565b604051602081830303815290604052805190602001209050600061038b60008054906101000a900473ffffffffffffffffffffffffffffffffffffffff1683610677565b90508073ffffffffffffffffffffffffffffffffffffffff1663c4d66de8856040518263ffffffff1660e01b81526004016103c691906107d6565b600060405180830381600087803b1580156103e057600080fd5b505af11580156103f4573d6000803e3d6000fd5b505050508073ffffffffffffffffffffffffffffffffffffffff167f71c438153cbebc2291551c561dac6772e60d7728b18cc306d466c2983acb17c760405160405180910390a28092505050919050565b600080826040516104559061072a565b61045f91906107d6565b604051809103906000f08015801561047b573d6000803e3d6000fd5b5090508073ffffffffffffffffffffffffffffffffffffffff167fe4149d154c4c0524542ec2736badd97f88766f32aa613200470d79b810316c3460405160405180910390a280915050919050565b6000763d602d80600a3d3981f3363d3d373d3d3d363d730000008260601b60e81c176000526e5af43d82803e903d91602b57fd5bf38260781b17602052603760096000f09050600073ffffffffffffffffffffffffffffffffffffffff168173ffffffffffffffffffffffffffffffffffffffff1603610576576040517fc2f868f400000000000000000000000000000000000000000000000000000000815260040160405180910390fd5b919050565b6000834710156105c45747846040517fe4bbecac0000000000000000000000000000000000000000000000000000000081526004016105bb929190610934565b60405180910390fd5b60008251036105ff576040517f4ca249dc00000000000000000000000000000000000000000000000000000000815260040160405180910390fd5b8282516020840186f59050600073ffffffffffffffffffffffffffffffffffffffff168173ffffffffffffffffffffffffffffffffffffffff1603610670576040517f741752c200000000000000000000000000000000000000000000000000000000815260040160405180910390fd5b9392505050565b6000763d602d80600a3d3981f3363d3d373d3d3d363d730000008360601b60e81c176000526e5af43d82803e903d91602b57fd5bf38360781b1760205281603760096000f59050600073ffffffffffffffffffffffffffffffffffffffff168173ffffffffffffffffffffffffffffffffffffffff1603610724576040517fc2f868f400000000000000000000000000000000000000000000000000000000815260040160405180910390fd5b92915050565b6106488061095e83390190565b600080fd5b600073ffffffffffffffffffffffffffffffffffffffff82169050919050565b60006107678261073c565b9050919050565b6107778161075c565b811461078257600080fd5b50565b6000813590506107948161076e565b92915050565b6000602082840312156107b0576107af610737565b5b60006107be84828501610785565b91505092915050565b6107d08161075c565b82525050565b60006020820190506107eb60008301846107c7565b92915050565b60008160601b9050919050565b6000610809826107f1565b9050919050565b600061081b826107fe565b9050919050565b61083361082e8261075c565b610810565b82525050565b6000819050919050565b6000819050919050565b61085e61085982610839565b610843565b82525050565b60006108708285610822565b601482019150610880828461084d565b6020820191508190509392505050565b600081519050919050565b600081905092915050565b60005b838110156108c45780820151818401526020810190506108a9565b60008484015250505050565b60006108db82610890565b6108e5818561089b565b93506108f58185602086016108a6565b80840191505092915050565b600061090d82856108d0565b915061091982846108d0565b91508190509392505050565b61092e81610839565b82525050565b60006040820190506109496000830185610925565b6109566020830184610925565b939250505056fe608060405234801561001057600080fd5b50604051610648380380610648833981810160405281019061003291906100db565b806000806101000a81548173ffffffffffffffffffffffffffffffffffffffff021916908373ffffffffffffffffffffffffffffffffffffffff16021790555050610108565b600080fd5b600073ffffffffffffffffffffffffffffffffffffffff82169050919050565b60006100a88261007d565b9050919050565b6100b88161009d565b81146100c357600080fd5b50565b6000815190506100d5816100af565b92915050565b6000602082840312156100f1576100f0610078565b5b60006100ff848285016100c6565b91505092915050565b610531806101176000396000f3fe608060405234801561001057600080fd5b50600436106100415760003560e01c806306661abd146100465780638da5cb5b14610050578063f3fef3a31461006e575b600080fd5b61004e61008a565b005b610058610132565b60405161006591906102a8565b60405180910390f35b6100886004803603810190610083919061032a565b610156565b005b60008054906101000a900473ffffffffffffffffffffffffffffffffffffffff1673ffffffffffffffffffffffffffffffffffffffff163373ffffffffffffffffffffffffffffffffffffffff1614610118576040517f08c379a000000000000000000000000000000000000000000000000000000000815260040161010f906103c7565b60405180910390fd5b6001600081548092919061012b90610416565b9190505550565b60008054906101000a900473ffffffffffffffffffffffffffffffffffffffff1681565b60008054906101000a900473ffffffffffffffffffffffffffffffffffffffff1673ffffffffffffffffffffffffffffffffffffffff163373ffffffffffffffffffffffffffffffffffffffff16146101e4576040517f08c379a00000000000000000000000000000000000000000000000000000000081526004016101db906103c7565b60405180910390fd5b8173ffffffffffffffffffffffffffffffffffffffff1663a9059cbb33836040518363ffffffff1660e01b815260040161021f92919061046d565b6020604051808303816000875af115801561023e573d6000803e3d6000fd5b505050506040513d601f19601f8201168201806040525081019061026291906104ce565b505050565b600073ffffffffffffffffffffffffffffffffffffffff82169050919050565b600061029282610267565b9050919050565b6102a281610287565b82525050565b60006020820190506102bd6000830184610299565b92915050565b600080fd5b6102d181610287565b81146102dc57600080fd5b50565b6000813590506102ee816102c8565b92915050565b6000819050919050565b610307816102f4565b811461031257600080fd5b50565b600081359050610324816102fe565b92915050565b60008060408385031215610341576103406102c3565b5b600061034f858286016102df565b925050602061036085828601610315565b9150509250929050565b600082825260208201905092915050565b7f216f776e65720000000000000000000000000000000000000000000000000000600082015250565b60006103b160068361036a565b91506103bc8261037b565b602082019050919050565b600060208201905081810360008301526103e0816103a4565b9050919050565b7f4e487b7100000000000000000000000000000000000000000000000000000000600052601160045260246000fd5b6000610421826102f4565b91507fffffffffffffffffffffffffffffffffffffffffffffffffffffffffffffffff8203610453576104526103e7565b5b600182019050919050565b610467816102f4565b82525050565b60006040820190506104826000830185610299565b61048f602083018461045e565b9392505050565b60008115159050919050565b6104ab81610496565b81146104b657600080fd5b50565b6000815190506104c8816104a2565b92915050565b6000602082840312156104e4576104e36102c3565b5b60006104f2848285016104b9565b9150509291505056fea26469706673582212203879457d70b8c9b074f4de5fca0d60c553ba423177a49de6ad56b84a4797e65764736f6c63430008180033a2646970667358221220b223f5446d810ce49a02ed01e216888e2b834330465b8c37c78ddb222ef6696764736f6c63430008180033608060405234801561001057600080fd5b5061069f806100206000396000f3fe608060405234801561001057600080fd5b506004361061004c5760003560e01c806306661abd146100515780638da5cb5b1461005b578063c4d66de814610079578063f3fef3a314610095575b600080fd5b6100596100b1565b005b610063610159565b604051610070919061037d565b60405180910390f35b610093600480360381019061008e91906103c9565b61017d565b005b6100af60048036038101906100aa919061042c565b61022b565b005b60008054906101000a900473ffffffffffffffffffffffffffffffffffffffff1673ffffffffffffffffffffffffffffffffffffffff163373ffffffffffffffffffffffffffffffffffffffff161461013f576040517f08c379a0000000000000000000000000000000000000000000000000000000008152600401610136906104c9565b60405180910390fd5b6001600081548092919061015290610518565b9190505550565b60008054906101000a900473ffffffffffffffffffffffffffffffffffffffff1681565b600260009054906101000a900460ff16156101cd576040517f08c379a00000000000000000000000000000000000000000000000000000000081526004016101c4906105ac565b60405180910390fd5b806000806101000a81548173ffffffffffffffffffffffffffffffffffffffff021916908373ffffffffffffffffffffffffffffffffffffffff1602179055506001600260006101000a81548160ff02191690831515021790555050565b60008054906101000a900473ffffffffffffffffffffffffffffffffffffffff1673ffffffffffffffffffffffffffffffffffffffff163373ffffffffffffffffffffffffffffffffffffffff16146102b9576040517f08c379a00000000000000000000000000000000000000000000000000000000081526004016102b0906104c9565b60405180910390fd5b8173ffffffffffffffffffffffffffffffffffffffff1663a9059cbb33836040518363ffffffff1660e01b81526004016102f49291906105db565b6020604051808303816000875af1158015610313573d6000803e3d6000fd5b505050506040513d601f19601f82011682018060405250810190610337919061063c565b505050565b600073ffffffffffffffffffffffffffffffffffffffff82169050919050565b60006103678261033c565b9050919050565b6103778161035c565b82525050565b6000602082019050610392600083018461036e565b92915050565b600080fd5b6103a68161035c565b81146103b157600080fd5b50565b6000813590506103c38161039d565b92915050565b6000602082840312156103df576103de610398565b5b60006103ed848285016103b4565b91505092915050565b6000819050919050565b610409816103f6565b811461041457600080fd5b50565b60008135905061042681610400565b92915050565b6000806040838503121561044357610442610398565b5b6000610451858286016103b4565b925050602061046285828601610417565b9150509250929050565b600082825260208201905092915050565b7f216f776e65720000000000000000000000000000000000000000000000000000600082015250565b60006104b360068361046c565b91506104be8261047d565b602082019050919050565b600060208201905081810360008301526104e2816104a6565b9050919050565b7f4e487b7100000000000000000000000000000000000000000000000000000000600052601160045260246000fd5b6000610523826103f6565b91507fffffffffffffffffffffffffffffffffffffffffffffffffffffffffffffffff8203610555576105546104e9565b5b600182019050919050565b7f696e697469616c697a6564000000000000000000000000000000000000000000600082015250565b6000610596600b8361046c565b91506105a182610560565b602082019050919050565b600060208201905081810360008301526105c581610589565b9050919050565b6105d5816103f6565b82525050565b60006040820190506105f0600083018561036e565b6105fd60208301846105cc565b9392505050565b60008115159050919050565b61061981610604565b811461062457600080fd5b50565b60008151905061063681610610565b92915050565b60006020828403121561065257610651610398565b5b600061066084828501610627565b9150509291505056fea264697066735822122005662becfd2eaf30589842aaa8e6b8f611be05f6414c9ece77d0d3e2e2c3298064736f6c63430008180033",
  "linkReferences": {},
  "deployedLinkReferences": {}
}