{
  "_format": "hh-sol-artifact-1",
  "contractName": "MyOwnSafeUpgradeable",
  "sourceName": "contracts/MyOwnSafeUpgradeable.sol",
  "abi": [
    {
      "inputs": [],
      "name": "count",
      "outputs": [],
      "stateMutability": "nonpayable",
      "type": "function"
    },
    {
      "inputs": [
        {
          "internalType": "address",
          "name": "_owner",
          "type": "address"
        }
      ],
      "name": "initialize",
      "outputs": [],
      "stateMutability": "nonpayable",
      "type": "function"
    },
    {
      "inputs": [],
      "name": "owner",
      "outputs": [
        {
          "internalType": "address",
          "name": "",
          "type": "address"
        }
      ],
      "stateMutability": "view",
      "type": "function"
    },
    {
      "inputs": [
        {
          "internalType": "address",
          "name": "token",
          "type": "address"
        },
        {
          "internalType": "uint256",
          "name": "amount",
          "type": "uint256"
        }
      ],
      "name": "withdraw",
      "outputs": [],
      "stateMutability": "nonpayable",
      "type": "function"
    }
  ],
  "bytecode": "0x608060405234801561001057600080fd5b5061069f806100206000396000f3fe608060405234801561001057600080fd5b506004361061004c5760003560e01c806306661abd146100515780638da5cb5b1461005b578063c4d66de814610079578063f3fef3a314610095575b600080fd5b6100596100b1565b005b610063610159565b604051610070919061037d565b60405180910390f35b610093600480360381019061008e91906103c9565b61017d565b005b6100af60048036038101906100aa919061042c565b61022b565b005b60008054906101000a900473ffffffffffffffffffffffffffffffffffffffff1673ffffffffffffffffffffffffffffffffffffffff163373ffffffffffffffffffffffffffffffffffffffff161461013f576040517f08c379a0000000000000000000000000000000000000000000000000000000008152600401610136906104c9565b60405180910390fd5b6001600081548092919061015290610518565b9190505550565b60008054906101000a900473ffffffffffffffffffffffffffffffffffffffff1681565b600260009054906101000a900460ff16156101cd576040517f08c379a00000000000000000000000000000000000000000000000000000000081526004016101c4906105ac565b60405180910390fd5b806000806101000a81548173ffffffffffffffffffffffffffffffffffffffff021916908373ffffffffffffffffffffffffffffffffffffffff1602179055506001600260006101000a81548160ff02191690831515021790555050565b60008054906101000a900473ffffffffffffffffffffffffffffffffffffffff1673ffffffffffffffffffffffffffffffffffffffff163373ffffffffffffffffffffffffffffffffffffffff16146102b9576040517f08c379a00000000000000000000000000000000000000000000000000000000081526004016102b0906104c9565b60405180910390fd5b8173ffffffffffffffffffffffffffffffffffffffff1663a9059cbb33836040518363ffffffff1660e01b81526004016102f49291906105db565b6020604051808303816000875af1158015610313573d6000803e3d6000fd5b505050506040513d601f19601f82011682018060405250810190610337919061063c565b505050565b600073ffffffffffffffffffffffffffffffffffffffff82169050919050565b60006103678261033c565b9050919050565b6103778161035c565b82525050565b6000602082019050610392600083018461036e565b92915050565b600080fd5b6103a68161035c565b81146103b157600080fd5b50565b6000813590506103c38161039d565b92915050565b6000602082840312156103df576103de610398565b5b60006103ed848285016103b4565b91505092915050565b6000819050919050565b610409816103f6565b811461041457600080fd5b50565b60008135905061042681610400565b92915050565b6000806040838503121561044357610442610398565b5b6000610451858286016103b4565b925050602061046285828601610417565b9150509250929050565b600082825260208201905092915050565b7f216f776e65720000000000000000000000000000000000000000000000000000600082015250565b60006104b360068361046c565b91506104be8261047d565b602082019050919050565b600060208201905081810360008301526104e2816104a6565b9050919050565b7f4e487b7100000000000000000000000000000000000000000000000000000000600052601160045260246000fd5b6000610523826103f6565b91507fffffffffffffffffffffffffffffffffffffffffffffffffffffffffffffffff8203610555576105546104e9565b5b600182019050919050565b7f696e697469616c697a6564000000000000000000000000000000000000000000600082015250565b6000610596600b8361046c565b91506105a182610560565b602082019050919050565b600060208201905081810360008301526105c581610589565b9050919050565b6105d5816103f6565b82525050565b60006040820190506105f0600083018561036e565b6105fd60208301846105cc565b9392505050565b60008115159050919050565b61061981610604565b811461062457600080fd5b50565b60008151905061063681610610565b92915050565b60006020828403121561065257610651610398565b5b600061066084828501610627565b9150509291505056fea264697066735822122005662becfd2eaf30589842aaa8e6b8f611be05f6414c9ece77d0d3e2e2c3298064736f6c63430008180033",
  "linkReferences": {},
  "deployedLinkReferences": {}
}